{
  "contractName": "CrowdFunding",
  "abi": [
    {
      "constant": true,
      "inputs": [],
      "name": "TEAM_SHARE",
      "outputs": [
        {
          "name": "",
          "type": "uint256"
        }
      ],
      "payable": false,
      "stateMutability": "view",
      "type": "function"
    },
    {
      "constant": true,
      "inputs": [],
      "name": "SALE_OPEN_DATE",
      "outputs": [
        {
          "name": "",
          "type": "uint256"
        }
      ],
      "payable": false,
      "stateMutability": "view",
      "type": "function"
    },
    {
      "constant": true,
      "inputs": [],
      "name": "rate",
      "outputs": [
        {
          "name": "",
          "type": "uint256"
        }
      ],
      "payable": false,
      "stateMutability": "view",
      "type": "function"
    },
    {
      "constant": true,
      "inputs": [],
      "name": "weiRaised",
      "outputs": [
        {
          "name": "",
          "type": "uint256"
        }
      ],
      "payable": false,
      "stateMutability": "view",
      "type": "function"
    },
    {
      "constant": true,
      "inputs": [],
      "name": "wallet",
      "outputs": [
        {
          "name": "",
          "type": "address"
        }
      ],
      "payable": false,
      "stateMutability": "view",
      "type": "function"
    },
    {
      "constant": false,
      "inputs": [],
      "name": "acceptOwnership",
      "outputs": [],
      "payable": false,
      "stateMutability": "nonpayable",
      "type": "function"
    },
    {
      "constant": true,
      "inputs": [],
      "name": "owner",
      "outputs": [
        {
          "name": "",
          "type": "address"
        }
      ],
      "payable": false,
      "stateMutability": "view",
      "type": "function"
    },
    {
      "constant": true,
      "inputs": [],
      "name": "FUNDS_UNLOCK_DATE",
      "outputs": [
        {
          "name": "",
          "type": "uint256"
        }
      ],
      "payable": false,
      "stateMutability": "view",
      "type": "function"
    },
    {
      "constant": true,
      "inputs": [],
      "name": "TOKEN_SUPPLY",
      "outputs": [
        {
          "name": "",
          "type": "uint256"
        }
      ],
      "payable": false,
      "stateMutability": "view",
      "type": "function"
    },
    {
      "constant": true,
      "inputs": [],
      "name": "newOwner",
      "outputs": [
        {
          "name": "",
          "type": "address"
        }
      ],
      "payable": false,
      "stateMutability": "view",
      "type": "function"
    },
    {
      "constant": false,
      "inputs": [
        {
          "name": "_newOwner",
          "type": "address"
        }
      ],
      "name": "transferOwnership",
      "outputs": [],
      "payable": false,
      "stateMutability": "nonpayable",
      "type": "function"
    },
    {
      "constant": true,
      "inputs": [],
      "name": "CROWD_FUNDING_SHARE",
      "outputs": [
        {
          "name": "",
          "type": "uint256"
        }
      ],
      "payable": false,
      "stateMutability": "view",
      "type": "function"
    },
    {
      "constant": true,
      "inputs": [],
      "name": "token",
      "outputs": [
        {
          "name": "",
          "type": "address"
        }
      ],
      "payable": false,
      "stateMutability": "view",
      "type": "function"
    },
    {
      "inputs": [],
      "payable": true,
      "stateMutability": "payable",
      "type": "constructor"
    },
    {
      "payable": true,
      "stateMutability": "payable",
      "type": "fallback"
    },
    {
      "anonymous": false,
      "inputs": [
        {
          "indexed": true,
          "name": "purchaser",
          "type": "address"
        },
        {
          "indexed": true,
          "name": "beneficiary",
          "type": "address"
        },
        {
          "indexed": false,
          "name": "value",
          "type": "uint256"
        },
        {
          "indexed": false,
          "name": "amount",
          "type": "uint256"
        }
      ],
      "name": "TokenPurchase",
      "type": "event"
    },
    {
      "anonymous": false,
      "inputs": [
        {
          "indexed": true,
          "name": "amount",
          "type": "uint256"
        }
      ],
      "name": "TokenAmount",
      "type": "event"
    },
    {
      "constant": true,
      "inputs": [],
      "name": "getBalance",
      "outputs": [
        {
          "name": "",
          "type": "uint256"
        }
      ],
      "payable": false,
      "stateMutability": "view",
      "type": "function"
    },
    {
      "constant": false,
      "inputs": [],
      "name": "distributeTokensToTeam",
      "outputs": [],
      "payable": false,
      "stateMutability": "nonpayable",
      "type": "function"
    },
    {
      "constant": false,
      "inputs": [
        {
          "name": "_beneficiary",
          "type": "address"
        }
      ],
      "name": "buyTokens",
      "outputs": [],
      "payable": true,
      "stateMutability": "payable",
      "type": "function"
    }
  ],
  "bytecode": "0x608060405260056004556000600555739d9c605ff54425876cda6ae3bd4c2c408a713bf1600760006101000a81548173ffffffffffffffffffffffffffffffffffffffff021916908373ffffffffffffffffffffffffffffffffffffffff1602179055506103e86008556000600955336000806101000a81548173ffffffffffffffffffffffffffffffffffffffff021916908373ffffffffffffffffffffffffffffffffffffffff1602179055504360038190555060026040805190810160405280738b760f272a996f834f7408403e507401dd954dd473ffffffffffffffffffffffffffffffffffffffff168152602001601e61ffff1681525090806001815401808255809150509060018203906000526020600020016000909192909190915060008201518160000160006101000a81548173ffffffffffffffffffffffffffffffffffffffff021916908373ffffffffffffffffffffffffffffffffffffffff16021790555060208201518160000160146101000a81548161ffff021916908361ffff1602179055505050506002604080519081016040528073617d1326a7ae1df47510242e07dbf3f0e0ac4d6373ffffffffffffffffffffffffffffffffffffffff168152602001601e61ffff1681525090806001815401808255809150509060018203906000526020600020016000909192909190915060008201518160000160006101000a81548173ffffffffffffffffffffffffffffffffffffffff021916908373ffffffffffffffffffffffffffffffffffffffff16021790555060208201518160000160146101000a81548161ffff021916908361ffff160217905550505050600260408051908101604052807376b741db5b2763c55a3d7458fc646caa14e9372c73ffffffffffffffffffffffffffffffffffffffff168152602001601461ffff1681525090806001815401808255809150509060018203906000526020600020016000909192909190915060008201518160000160006101000a81548173ffffffffffffffffffffffffffffffffffffffff021916908373ffffffffffffffffffffffffffffffffffffffff16021790555060208201518160000160146101000a81548161ffff021916908361ffff160217905550505050600260408051908101604052807390110ffc4937dcdbb8c386c1e18cb2c1f1ba9f8a73ffffffffffffffffffffffffffffffffffffffff168152602001600a61ffff1681525090806001815401808255809150509060018203906000526020600020016000909192909190915060008201518160000160006101000a81548173ffffffffffffffffffffffffffffffffffffffff021916908373ffffffffffffffffffffffffffffffffffffffff16021790555060208201518160000160146101000a81548161ffff021916908361ffff160217905550505050600260408051908101604052807354ca715a29a694bf837f5f2b74163b07ad3f3e8b73ffffffffffffffffffffffffffffffffffffffff168152602001600a61ffff1681525090806001815401808255809150509060018203906000526020600020016000909192909190915060008201518160000160006101000a81548173ffffffffffffffffffffffffffffffffffffffff021916908373ffffffffffffffffffffffffffffffffffffffff16021790555060208201518160000160146101000a81548161ffff021916908361ffff16021790555050505060086305f5e10062e4e1c080013061050d61062f565b8080602001806020018760ff1681526020018681526020018581526020018473ffffffffffffffffffffffffffffffffffffffff1673ffffffffffffffffffffffffffffffffffffffff168152602001838103835260058152602001807f546f6b656e000000000000000000000000000000000000000000000000000000815250602001838103825260038152602001807f544b4e00000000000000000000000000000000000000000000000000000000008152506020019650505050505050604051809103906000f0801580156105e9573d6000803e3d6000fd5b50600660006101000a81548173ffffffffffffffffffffffffffffffffffffffff021916908373ffffffffffffffffffffffffffffffffffffffff16021790555061063f565b604051612a5f8061140783390190565b610db98061064e6000396000f3006080604052600436106100e5576000357c0100000000000000000000000000000000000000000000000000000000900463ffffffff168062522cf3146100f057806305943a151461010757806312065fe014610132578063188f34161461015d5780632c4e722e146101885780634042b66f146101b3578063521eb273146101de57806379ba5097146102355780638da5cb5b1461024c578063aa154c1e146102a3578063b152f6cf146102ce578063d4ee1d90146102f9578063ec8ac4d814610350578063f2fde38b14610386578063fa882540146103c9578063fc0c546a146103f4575b6100ee3361044b565b005b3480156100fc57600080fd5b5061010561053e565b005b34801561011357600080fd5b5061011c6107bf565b6040518082815260200191505060405180910390f35b34801561013e57600080fd5b506101476107c6565b6040518082815260200191505060405180910390f35b34801561016957600080fd5b506101726108c5565b6040518082815260200191505060405180910390f35b34801561019457600080fd5b5061019d6108cd565b6040518082815260200191505060405180910390f35b3480156101bf57600080fd5b506101c86108d3565b6040518082815260200191505060405180910390f35b3480156101ea57600080fd5b506101f36108d9565b604051808273ffffffffffffffffffffffffffffffffffffffff1673ffffffffffffffffffffffffffffffffffffffff16815260200191505060405180910390f35b34801561024157600080fd5b5061024a6108ff565b005b34801561025857600080fd5b506102616109ba565b604051808273ffffffffffffffffffffffffffffffffffffffff1673ffffffffffffffffffffffffffffffffffffffff16815260200191505060405180910390f35b3480156102af57600080fd5b506102b86109df565b6040518082815260200191505060405180910390f35b3480156102da57600080fd5b506102e36109ec565b6040518082815260200191505060405180910390f35b34801561030557600080fd5b5061030e6109f4565b604051808273ffffffffffffffffffffffffffffffffffffffff1673ffffffffffffffffffffffffffffffffffffffff16815260200191505060405180910390f35b610384600480360381019080803573ffffffffffffffffffffffffffffffffffffffff16906020019092919050505061044b565b005b34801561039257600080fd5b506103c7600480360381019080803573ffffffffffffffffffffffffffffffffffffffff169060200190929190505050610a1a565b005b3480156103d557600080fd5b506103de610af5565b6040518082815260200191505060405180910390f35b34801561040057600080fd5b50610409610afc565b604051808273ffffffffffffffffffffffffffffffffffffffff1673ffffffffffffffffffffffffffffffffffffffff16815260200191505060405180910390f35b60008042635aec0faa1015151561046157600080fd5b34915061046e8383610b22565b61047782610b72565b905062e4e1c081600554011115151561048f57600080fd5b6104a482600954610ba890919063ffffffff16565b600981905550806005600082825401925050819055506104c48382610bc4565b8273ffffffffffffffffffffffffffffffffffffffff163373ffffffffffffffffffffffffffffffffffffffff167f623b3804fa71d67900d064613da8f94b9617215ee90799290593e1745087ad188484604051808381526020018281526020019250505060405180910390a3610539610bd2565b505050565b60008060008060009054906101000a900473ffffffffffffffffffffffffffffffffffffffff1673ffffffffffffffffffffffffffffffffffffffff163373ffffffffffffffffffffffffffffffffffffffff1614151561059e57600080fd5b42624f1a00635aec0faa01101515156105b657600080fd5b60009250600091505b600280549050821015610608576002828154811015156105db57fe5b9060005260206000200160000160149054906101000a900461ffff168301925081806001019250506105bf565b60648361ffff1614151561061b57600080fd5b600090505b6002805490508110156107ba57600660009054906101000a900473ffffffffffffffffffffffffffffffffffffffff1673ffffffffffffffffffffffffffffffffffffffff1663a9059cbb60028381548110151561067a57fe5b9060005260206000200160000160009054906101000a900473ffffffffffffffffffffffffffffffffffffffff1662e4e1c060646002868154811015156106bd57fe5b9060005260206000200160000160149054906101000a900461ffff1661ffff168115156106e657fe5b0461ffff16026040518363ffffffff167c0100000000000000000000000000000000000000000000000000000000028152600401808373ffffffffffffffffffffffffffffffffffffffff1673ffffffffffffffffffffffffffffffffffffffff16815260200182815260200192505050602060405180830381600087803b15801561077157600080fd5b505af1158015610785573d6000803e3d6000fd5b505050506040513d602081101561079b57600080fd5b8101908080519060200190929190505050508080600101915050610620565b505050565b62e4e1c081565b6000600660009054906101000a900473ffffffffffffffffffffffffffffffffffffffff1673ffffffffffffffffffffffffffffffffffffffff166370a08231336040518263ffffffff167c0100000000000000000000000000000000000000000000000000000000028152600401808273ffffffffffffffffffffffffffffffffffffffff1673ffffffffffffffffffffffffffffffffffffffff168152602001915050602060405180830381600087803b15801561088557600080fd5b505af1158015610899573d6000803e3d6000fd5b505050506040513d60208110156108af57600080fd5b8101908080519060200190929190505050905090565b635aec0faa81565b60085481565b60095481565b600760009054906101000a900473ffffffffffffffffffffffffffffffffffffffff1681565b600160009054906101000a900473ffffffffffffffffffffffffffffffffffffffff1673ffffffffffffffffffffffffffffffffffffffff163373ffffffffffffffffffffffffffffffffffffffff1614156109b857600160009054906101000a900473ffffffffffffffffffffffffffffffffffffffff166000806101000a81548173ffffffffffffffffffffffffffffffffffffffff021916908373ffffffffffffffffffffffffffffffffffffffff1602179055505b565b6000809054906101000a900473ffffffffffffffffffffffffffffffffffffffff1681565b624f1a00635aec0faa0181565b6305f5e10081565b600160009054906101000a900473ffffffffffffffffffffffffffffffffffffffff1681565b6000809054906101000a900473ffffffffffffffffffffffffffffffffffffffff1673ffffffffffffffffffffffffffffffffffffffff163373ffffffffffffffffffffffffffffffffffffffff16141515610a7557600080fd5b600073ffffffffffffffffffffffffffffffffffffffff168173ffffffffffffffffffffffffffffffffffffffff1614151515610ab157600080fd5b80600160006101000a81548173ffffffffffffffffffffffffffffffffffffffff021916908373ffffffffffffffffffffffffffffffffffffffff16021790555050565b62e4e1c081565b600660009054906101000a900473ffffffffffffffffffffffffffffffffffffffff1681565b600073ffffffffffffffffffffffffffffffffffffffff168273ffffffffffffffffffffffffffffffffffffffff1614151515610b5e57600080fd5b60008114151515610b6e57600080fd5b5050565b600080670de0b6b3a764000083811515610b8857fe5b049050610ba060085482610c3d90919063ffffffff16565b915050919050565b60008183019050828110151515610bbb57fe5b80905092915050565b610bce8282610c75565b5050565b600760009054906101000a900473ffffffffffffffffffffffffffffffffffffffff1673ffffffffffffffffffffffffffffffffffffffff166108fc349081150290604051600060405180830381858888f19350505050158015610c3a573d6000803e3d6000fd5b50565b600080831415610c505760009050610c6f565b8183029050818382811515610c6157fe5b04141515610c6b57fe5b8090505b92915050565b42635aec0faa10151515610c8857600080fd5b600660009054906101000a900473ffffffffffffffffffffffffffffffffffffffff1673ffffffffffffffffffffffffffffffffffffffff1663a9059cbb83836040518363ffffffff167c0100000000000000000000000000000000000000000000000000000000028152600401808373ffffffffffffffffffffffffffffffffffffffff1673ffffffffffffffffffffffffffffffffffffffff16815260200182815260200192505050602060405180830381600087803b158015610d4d57600080fd5b505af1158015610d61573d6000803e3d6000fd5b505050506040513d6020811015610d7757600080fd5b81019080805190602001909291905050505050505600a165627a7a72305820639c47863c9367c465a1562cc64905be8e22b1c3f1020de234fd95b4cb7a5d5900296080604052610400600855620100006009557d040000000000000000000000000000000000000000000000000000000000600a556000600d553480156200004557600080fd5b5060405162002a5f38038062002a5f8339810180604052810190808051820192919060200180518201929190602001805190602001909291908051906020019092919080519060200190929190805190602001909291905050508560009080519060200190620000b792919062000615565b508460019080519060200190620000d092919062000615565b5083600260006101000a81548160ff021916908360ff1602179055508260058190555081600360008373ffffffffffffffffffffffffffffffffffffffff1673ffffffffffffffffffffffffffffffffffffffff16815260200190815260200160002081905550816013600082825401925050819055506200016b600284620001a664010000000002620018f4179091906401000000009004565b600e81905550600a54600b81905550436006819055506200019a620001bd640100000000026401000000009004565b505050505050620006c4565b60008183811515620001b457fe5b04905092915050565b600e54620001fd620001dd620002c8640100000000026401000000009004565b6013546200030f640100000000026200190a179091906401000000009004565b1180156200020d57506027600d54105b1562000220576001600d5401600d819055505b6200024d6001600d540160020a600554620001a664010000000002620018f4179091906401000000009004565b60055403600e819055506200027d60016007546200030f640100000000026200190a179091906401000000009004565b60078190555060006008546007548115156200029557fe5b061415620002b757620002b66200032c640100000000026401000000009004565b5b6001430340600c8160001916905550565b60006200030a600d5460020a600260009054906101000a900460ff1660ff16600a0a603202620001a664010000000002620018f4179091906401000000009004565b905090565b600081830190508281101515156200032357fe5b80905092915050565b6000806000806000806000600654430396506008549550603c86029450848710156200045d5762000398876200037b606488620005a1640100000000026200230b179091906401000000009004565b620001a664010000000002620018f4179091906401000000009004565b9350620003e26103e8620003c5606487620005dd64010000000002620019db179091906401000000009004565b620005f76401000000000262002343179091906401000000009004565b9250620004516200043184620004146107d0600b54620001a664010000000002620018f4179091906401000000009004565b620005a1640100000000026200230b179091906401000000009004565b600b54620005dd64010000000002620019db179091906401000000009004565b600b8190555062000563565b620004a3856200048660648a620005a1640100000000026200230b179091906401000000009004565b620001a664010000000002620018f4179091906401000000009004565b9150620004ed6103e8620004d0606485620005dd64010000000002620019db179091906401000000009004565b620005f76401000000000262002343179091906401000000009004565b90506200055c6200053c826200051f6107d0600b54620001a664010000000002620018f4179091906401000000009004565b620005a1640100000000026200230b179091906401000000009004565b600b546200030f640100000000026200190a179091906401000000009004565b600b819055505b43600681905550600954600b5410156200058157600954600b819055505b600a54600b5411156200059857600a54600b819055505b50505050505050565b600080831415620005b65760009050620005d7565b8183029050818382811515620005c857fe5b04141515620005d357fe5b8090505b92915050565b6000828211151515620005ec57fe5b818303905092915050565b6000818311156200060b578190506200060f565b8290505b92915050565b828054600181600116156101000203166002900490600052602060002090601f016020900481019282601f106200065857805160ff191683800117855562000689565b8280016001018555821562000689579182015b82811115620006885782518255916020019190600101906200066b565b5b5090506200069891906200069c565b5090565b620006c191905b80821115620006bd576000816000905550600101620006a3565b5090565b90565b61238b80620006d46000396000f3006080604052600436106101a1576000357c0100000000000000000000000000000000000000000000000000000000900463ffffffff16806306fdde03146101a6578063095ea7b314610236578063163aa00d1461029b57806317da485f146102c65780631801fbe5146102f157806318160ddd1461034457806323b872dd1461036f5780632d38bf7a146103f4578063313ce5671461041f57806332e9970814610450578063490203a71461047b5780634ef37628146104a65780634fa972e1146104d957806366188463146105045780636de9f32b146105695780636fd396d61461059457806370a08231146105eb57806381269a5614610642578063829965cc146106ad57806387a2a9d6146106d85780638a769d35146107035780638ae0368b1461072e57806395d89b411461076157806397566aa0146107f1578063a9059cbb14610856578063ab67aa58146108bb578063b5ade81b14610986578063bafedcaa146109b1578063be45fd62146109dc578063cb9ae70714610a87578063d73dd62314610ab2578063dc6e9cf914610b17578063dd62ed3e14610b42575b600080fd5b3480156101b257600080fd5b506101bb610bb9565b6040518080602001828103825283818151815260200191508051906020019080838360005b838110156101fb5780820151818401526020810190506101e0565b50505050905090810190601f1680156102285780820380516001836020036101000a031916815260200191505b509250505060405180910390f35b34801561024257600080fd5b50610281600480360381019080803573ffffffffffffffffffffffffffffffffffffffff16906020019092919080359060200190929190505050610c57565b604051808215151515815260200191505060405180910390f35b3480156102a757600080fd5b506102b0610d49565b6040518082815260200191505060405180910390f35b3480156102d257600080fd5b506102db610d4f565b6040518082815260200191505060405180910390f35b3480156102fd57600080fd5b5061032a600480360381019080803590602001909291908035600019169060200190929190505050610d6d565b604051808215151515815260200191505060405180910390f35b34801561035057600080fd5b50610359610ffd565b6040518082815260200191505060405180910390f35b34801561037b57600080fd5b506103da600480360381019080803573ffffffffffffffffffffffffffffffffffffffff169060200190929190803573ffffffffffffffffffffffffffffffffffffffff16906020019092919080359060200190929190505050611007565b604051808215151515815260200191505060405180910390f35b34801561040057600080fd5b50610409611052565b6040518082815260200191505060405180910390f35b34801561042b57600080fd5b50610434611058565b604051808260ff1660ff16815260200191505060405180910390f35b34801561045c57600080fd5b5061046561106b565b6040518082815260200191505060405180910390f35b34801561048757600080fd5b50610490611075565b6040518082815260200191505060405180910390f35b3480156104b257600080fd5b506104bb6110ac565b60405180826000191660001916815260200191505060405180910390f35b3480156104e557600080fd5b506104ee6110b6565b6040518082815260200191505060405180910390f35b34801561051057600080fd5b5061054f600480360381019080803573ffffffffffffffffffffffffffffffffffffffff169060200190929190803590602001909291905050506110bc565b604051808215151515815260200191505060405180910390f35b34801561057557600080fd5b5061057e61134d565b6040518082815260200191505060405180910390f35b3480156105a057600080fd5b506105a9611353565b604051808273ffffffffffffffffffffffffffffffffffffffff1673ffffffffffffffffffffffffffffffffffffffff16815260200191505060405180910390f35b3480156105f757600080fd5b5061062c600480360381019080803573ffffffffffffffffffffffffffffffffffffffff169060200190929190505050611379565b6040518082815260200191505060405180910390f35b34801561064e57600080fd5b506106936004803603810190808035906020019092919080356000191690602001909291908035600019169060200190929190803590602001909291905050506113c2565b604051808215151515815260200191505060405180910390f35b3480156106b957600080fd5b506106c2611457565b6040518082815260200191505060405180910390f35b3480156106e457600080fd5b506106ed61145d565b6040518082815260200191505060405180910390f35b34801561070f57600080fd5b50610718611463565b6040518082815260200191505060405180910390f35b34801561073a57600080fd5b50610743611469565b60405180826000191660001916815260200191505060405180910390f35b34801561076d57600080fd5b5061077661146f565b6040518080602001828103825283818151815260200191508051906020019080838360005b838110156107b657808201518184015260208101905061079b565b50505050905090810190601f1680156107e35780820380516001836020036101000a031916815260200191505b509250505060405180910390f35b3480156107fd57600080fd5b50610838600480360381019080803590602001909291908035600019169060200190929190803560001916906020019092919050505061150d565b60405180826000191660001916815260200191505060405180910390f35b34801561086257600080fd5b506108a1600480360381019080803573ffffffffffffffffffffffffffffffffffffffff16906020019092919080359060200190929190505050611586565b604051808215151515815260200191505060405180910390f35b3480156108c757600080fd5b5061096c600480360381019080803573ffffffffffffffffffffffffffffffffffffffff169060200190929190803573ffffffffffffffffffffffffffffffffffffffff16906020019092919080359060200190929190803590602001908201803590602001908080601f01602080910402602001604051908101604052809392919081815260200183838082843782019150505050505091929192905050506115cf565b604051808215151515815260200191505060405180910390f35b34801561099257600080fd5b5061099b611615565b6040518082815260200191505060405180910390f35b3480156109bd57600080fd5b506109c661161b565b6040518082815260200191505060405180910390f35b3480156109e857600080fd5b50610a6d600480360381019080803573ffffffffffffffffffffffffffffffffffffffff16906020019092919080359060200190929190803590602001908201803590602001908080601f0160208091040260200160405190810160405280939291908181526020018383808284378201915050505050509192919290505050611621565b604051808215151515815260200191505060405180910390f35b348015610a9357600080fd5b50610a9c611665565b6040518082815260200191505060405180910390f35b348015610abe57600080fd5b50610afd600480360381019080803573ffffffffffffffffffffffffffffffffffffffff1690602001909291908035906020019092919050505061166b565b604051808215151515815260200191505060405180910390f35b348015610b2357600080fd5b50610b2c611867565b6040518082815260200191505060405180910390f35b348015610b4e57600080fd5b50610ba3600480360381019080803573ffffffffffffffffffffffffffffffffffffffff169060200190929190803573ffffffffffffffffffffffffffffffffffffffff16906020019092919050505061186d565b6040518082815260200191505060405180910390f35b60008054600181600116156101000203166002900480601f016020809104026020016040519081016040528092919081815260200182805460018160011615610100020316600290048015610c4f5780601f10610c2457610100808354040283529160200191610c4f565b820191906000526020600020905b815481529060010190602001808311610c3257829003601f168201915b505050505081565b600081600460003373ffffffffffffffffffffffffffffffffffffffff1673ffffffffffffffffffffffffffffffffffffffff16815260200190815260200160002060008573ffffffffffffffffffffffffffffffffffffffff1673ffffffffffffffffffffffffffffffffffffffff168152602001908152602001600020819055508273ffffffffffffffffffffffffffffffffffffffff163373ffffffffffffffffffffffffffffffffffffffff167f8c5be1e5ebec7d5bd14f71427d1e84f3dd0314c0f7b2291e5b200ac8c7c3b925846040518082815260200191505060405180910390a36001905092915050565b60115481565b6000610d68600b54600a546118f490919063ffffffff16565b905090565b600080600080600c5433876040518084600019166000191681526020018373ffffffffffffffffffffffffffffffffffffffff1673ffffffffffffffffffffffffffffffffffffffff166c0100000000000000000000000002815260140182815260200193505050506040518091039020925084600019168360001916141515610df657600080fd5b600b5483600190041115610e0957600080fd5b60126000600c54600019166000191681526020019081526020016000205491508260126000600c5460001916600019168152602001908152602001600020816000191690555060006001028260001916141515610e6557600080fd5b610e6d611075565b9050610ec181600360003373ffffffffffffffffffffffffffffffffffffffff1673ffffffffffffffffffffffffffffffffffffffff1681526020019081526020016000205461190a90919063ffffffff16565b600360003373ffffffffffffffffffffffffffffffffffffffff1673ffffffffffffffffffffffffffffffffffffffff16815260200190815260200160002081905550610f198160135461190a90919063ffffffff16565b601381905550600e5460135411151515610f2f57fe5b33600f60006101000a81548173ffffffffffffffffffffffffffffffffffffffff021916908373ffffffffffffffffffffffffffffffffffffffff1602179055508060108190555043601181905550610f86611926565b3373ffffffffffffffffffffffffffffffffffffffff167fcf6fbb9dcea7d07263ab4f5c3a92f53af33dffc421d9d121e1c74b307e68189d82600754600c54604051808481526020018381526020018260001916600019168152602001935050505060405180910390a26001935050505092915050565b6000600554905090565b600061104984848460006040519080825280601f01601f1916602001820160405280156110435781602001602082028038833980820191505090505b506115cf565b90509392505050565b600d5481565b600260009054906101000a900460ff1681565b6000600b54905090565b60006110a7600d5460020a600260009054906101000a900460ff1660ff16600a0a6032026118f490919063ffffffff16565b905090565b6000600c54905090565b600e5481565b600080600460003373ffffffffffffffffffffffffffffffffffffffff1673ffffffffffffffffffffffffffffffffffffffff16815260200190815260200160002060008573ffffffffffffffffffffffffffffffffffffffff1673ffffffffffffffffffffffffffffffffffffffff168152602001908152602001600020549050808311156111cd576000600460003373ffffffffffffffffffffffffffffffffffffffff1673ffffffffffffffffffffffffffffffffffffffff16815260200190815260200160002060008673ffffffffffffffffffffffffffffffffffffffff1673ffffffffffffffffffffffffffffffffffffffff16815260200190815260200160002081905550611261565b6111e083826119db90919063ffffffff16565b600460003373ffffffffffffffffffffffffffffffffffffffff1673ffffffffffffffffffffffffffffffffffffffff16815260200190815260200160002060008673ffffffffffffffffffffffffffffffffffffffff1673ffffffffffffffffffffffffffffffffffffffff168152602001908152602001600020819055505b8373ffffffffffffffffffffffffffffffffffffffff163373ffffffffffffffffffffffffffffffffffffffff167f8c5be1e5ebec7d5bd14f71427d1e84f3dd0314c0f7b2291e5b200ac8c7c3b925600460003373ffffffffffffffffffffffffffffffffffffffff1673ffffffffffffffffffffffffffffffffffffffff16815260200190815260200160002060008873ffffffffffffffffffffffffffffffffffffffff1673ffffffffffffffffffffffffffffffffffffffff168152602001908152602001600020546040518082815260200191505060405180910390a3600191505092915050565b60135481565b600f60009054906101000a900473ffffffffffffffffffffffffffffffffffffffff1681565b6000600360008373ffffffffffffffffffffffffffffffffffffffff1673ffffffffffffffffffffffffffffffffffffffff168152602001908152602001600020549050919050565b6000808333876040518084600019166000191681526020018373ffffffffffffffffffffffffffffffffffffffff1673ffffffffffffffffffffffffffffffffffffffff166c01000000000000000000000000028152601401828152602001935050505060405180910390209050828160019004111561144157600080fd5b8460001916816000191614915050949350505050565b60075481565b600a5481565b600b5481565b600c5481565b60018054600181600116156101000203166002900480601f0160208091040260200160405190810160405280929190818152602001828054600181600116156101000203166002900480156115055780601f106114da57610100808354040283529160200191611505565b820191906000526020600020905b8154815290600101906020018083116114e857829003601f168201915b505050505081565b6000808233866040518084600019166000191681526020018373ffffffffffffffffffffffffffffffffffffffff1673ffffffffffffffffffffffffffffffffffffffff166c01000000000000000000000000028152601401828152602001935050505060405180910390209050809150509392505050565b60006115c7838360006040519080825280601f01601f1916602001820160405280156115c15781602001602082028038833980820191505090505b50611621565b905092915050565b60006115dc8585856119f4565b15156115e757600080fd5b6115f084611db3565b156116085761160185858585611dc6565b905061160d565b600190505b949350505050565b60085481565b60105481565b600061162d8484611f56565b151561163857600080fd5b61164184611db3565b156116595761165233858585611dc6565b905061165e565b600190505b9392505050565b60065481565b60006116fc82600460003373ffffffffffffffffffffffffffffffffffffffff1673ffffffffffffffffffffffffffffffffffffffff16815260200190815260200160002060008673ffffffffffffffffffffffffffffffffffffffff1673ffffffffffffffffffffffffffffffffffffffff1681526020019081526020016000205461190a90919063ffffffff16565b600460003373ffffffffffffffffffffffffffffffffffffffff1673ffffffffffffffffffffffffffffffffffffffff16815260200190815260200160002060008573ffffffffffffffffffffffffffffffffffffffff1673ffffffffffffffffffffffffffffffffffffffff168152602001908152602001600020819055508273ffffffffffffffffffffffffffffffffffffffff163373ffffffffffffffffffffffffffffffffffffffff167f8c5be1e5ebec7d5bd14f71427d1e84f3dd0314c0f7b2291e5b200ac8c7c3b925600460003373ffffffffffffffffffffffffffffffffffffffff1673ffffffffffffffffffffffffffffffffffffffff16815260200190815260200160002060008773ffffffffffffffffffffffffffffffffffffffff1673ffffffffffffffffffffffffffffffffffffffff168152602001908152602001600020546040518082815260200191505060405180910390a36001905092915050565b60095481565b6000600460008473ffffffffffffffffffffffffffffffffffffffff1673ffffffffffffffffffffffffffffffffffffffff16815260200190815260200160002060008373ffffffffffffffffffffffffffffffffffffffff1673ffffffffffffffffffffffffffffffffffffffff16815260200190815260200160002054905092915050565b6000818381151561190157fe5b04905092915050565b6000818301905082811015151561191d57fe5b80905092915050565b600e54611945611934611075565b60135461190a90919063ffffffff16565b11801561195457506027600d54105b15611966576001600d5401600d819055505b6119836001600d540160020a6005546118f490919063ffffffff16565b60055403600e819055506119a3600160075461190a90919063ffffffff16565b60078190555060006008546007548115156119ba57fe5b0614156119ca576119c961217a565b5b6001430340600c8160001916905550565b60008282111515156119e957fe5b818303905092915050565b60008073ffffffffffffffffffffffffffffffffffffffff168373ffffffffffffffffffffffffffffffffffffffff1614151515611a3157600080fd5b600360008573ffffffffffffffffffffffffffffffffffffffff1673ffffffffffffffffffffffffffffffffffffffff168152602001908152602001600020548211151515611a7f57600080fd5b600460008573ffffffffffffffffffffffffffffffffffffffff1673ffffffffffffffffffffffffffffffffffffffff16815260200190815260200160002060003373ffffffffffffffffffffffffffffffffffffffff1673ffffffffffffffffffffffffffffffffffffffff168152602001908152602001600020548211151515611b0a57600080fd5b611b5c82600360008773ffffffffffffffffffffffffffffffffffffffff1673ffffffffffffffffffffffffffffffffffffffff168152602001908152602001600020546119db90919063ffffffff16565b600360008673ffffffffffffffffffffffffffffffffffffffff1673ffffffffffffffffffffffffffffffffffffffff16815260200190815260200160002081905550611bf182600360008673ffffffffffffffffffffffffffffffffffffffff1673ffffffffffffffffffffffffffffffffffffffff1681526020019081526020016000205461190a90919063ffffffff16565b600360008573ffffffffffffffffffffffffffffffffffffffff1673ffffffffffffffffffffffffffffffffffffffff16815260200190815260200160002081905550611cc382600460008773ffffffffffffffffffffffffffffffffffffffff1673ffffffffffffffffffffffffffffffffffffffff16815260200190815260200160002060003373ffffffffffffffffffffffffffffffffffffffff1673ffffffffffffffffffffffffffffffffffffffff168152602001908152602001600020546119db90919063ffffffff16565b600460008673ffffffffffffffffffffffffffffffffffffffff1673ffffffffffffffffffffffffffffffffffffffff16815260200190815260200160002060003373ffffffffffffffffffffffffffffffffffffffff1673ffffffffffffffffffffffffffffffffffffffff168152602001908152602001600020819055508273ffffffffffffffffffffffffffffffffffffffff168473ffffffffffffffffffffffffffffffffffffffff167fddf252ad1be2c89b69c2b068fc378daa952ba7f163c4a11628f55a4df523b3ef846040518082815260200191505060405180910390a3600190509392505050565b600080823b905060008111915050919050565b6000808490508073ffffffffffffffffffffffffffffffffffffffff16634c123019338887876040518563ffffffff167c0100000000000000000000000000000000000000000000000000000000028152600401808573ffffffffffffffffffffffffffffffffffffffff1673ffffffffffffffffffffffffffffffffffffffff1681526020018473ffffffffffffffffffffffffffffffffffffffff1673ffffffffffffffffffffffffffffffffffffffff16815260200183815260200180602001828103825283818151815260200191508051906020019080838360005b83811015611ec1578082015181840152602081019050611ea6565b50505050905090810190601f168015611eee5780820380516001836020036101000a031916815260200191505b5095505050505050602060405180830381600087803b158015611f1057600080fd5b505af1158015611f24573d6000803e3d6000fd5b505050506040513d6020811015611f3a57600080fd5b8101908080519060200190929190505050915050949350505050565b60008073ffffffffffffffffffffffffffffffffffffffff168373ffffffffffffffffffffffffffffffffffffffff1614151515611f9357600080fd5b600360003373ffffffffffffffffffffffffffffffffffffffff1673ffffffffffffffffffffffffffffffffffffffff168152602001908152602001600020548211151515611fe157600080fd5b61203382600360003373ffffffffffffffffffffffffffffffffffffffff1673ffffffffffffffffffffffffffffffffffffffff168152602001908152602001600020546119db90919063ffffffff16565b600360003373ffffffffffffffffffffffffffffffffffffffff1673ffffffffffffffffffffffffffffffffffffffff168152602001908152602001600020819055506120c882600360008673ffffffffffffffffffffffffffffffffffffffff1673ffffffffffffffffffffffffffffffffffffffff1681526020019081526020016000205461190a90919063ffffffff16565b600360008573ffffffffffffffffffffffffffffffffffffffff1673ffffffffffffffffffffffffffffffffffffffff168152602001908152602001600020819055508273ffffffffffffffffffffffffffffffffffffffff163373ffffffffffffffffffffffffffffffffffffffff167fddf252ad1be2c89b69c2b068fc378daa952ba7f163c4a11628f55a4df523b3ef846040518082815260200191505060405180910390a36001905092915050565b6000806000806000806000600654430396506008549550603c8602945084871015612239576121c5876121b760648861230b90919063ffffffff16565b6118f490919063ffffffff16565b93506121ef6103e86121e16064876119db90919063ffffffff16565b61234390919063ffffffff16565b925061222e61221d8461220f6107d0600b546118f490919063ffffffff16565b61230b90919063ffffffff16565b600b546119db90919063ffffffff16565b600b819055506122cf565b61225f8561225160648a61230b90919063ffffffff16565b6118f490919063ffffffff16565b91506122896103e861227b6064856119db90919063ffffffff16565b61234390919063ffffffff16565b90506122c86122b7826122a96107d0600b546118f490919063ffffffff16565b61230b90919063ffffffff16565b600b5461190a90919063ffffffff16565b600b819055505b43600681905550600954600b5410156122ec57600954600b819055505b600a54600b54111561230257600a54600b819055505b50505050505050565b60008083141561231e576000905061233d565b818302905081838281151561232f57fe5b0414151561233957fe5b8090505b92915050565b60008183111561235557819050612359565b8290505b929150505600a165627a7a72305820d0b67ae30e465794ab96e32c76d31ca5952cfcb1371cad03d2440a53c903989e0029",
  "source": "pragma solidity ^0.4.21;\n\nimport \"./SafeMath.sol\";\nimport \"./Token.sol\";\nimport \"./Repository.sol\";\nimport \"./Ownable.sol\";\n\ncontract CrowdFunding is Ownable, Repository {\n    using SafeMath for uint256;\n\n    uint constant public TOKEN_SUPPLY = 100000000;\n    uint constant public CROWD_FUNDING_SHARE = 15000000;\n    uint constant public TEAM_SHARE = 15000000;\n\n    uint constant public SALE_OPEN_DATE = 1525419946;\n    uint constant public FUNDS_UNLOCK_DATE = SALE_OPEN_DATE + 60 days;\n\n    uint lastBlock;\n    uint blockReward = 5;\n\n    uint tokensSold = 0;\n\n    ERC223 public token;\n    address public wallet = 0x9D9C605fF54425876Cda6AE3BD4c2c408A713bf1;\n    uint256 public rate = 1000;\n    uint256 public weiRaised = 0;\n\n    event TokenPurchase(address indexed purchaser, address indexed beneficiary, uint256 value, uint256 amount);\n    event TokenAmount(uint256 indexed amount);\n\n    function CrowdFunding() public payable {\n        lastBlock = block.number;\n\n        team.push(TeamMember(0x8b760F272a996f834F7408403e507401DD954dD4, 30));\n        team.push(TeamMember(0x617d1326a7ae1df47510242e07dbf3f0e0ac4d63, 30));\n        team.push(TeamMember(0x76b741db5b2763c55a3d7458fc646caa14e9372c, 20));\n        team.push(TeamMember(0x90110ffc4937dcdbb8c386c1e18cb2c1f1ba9f8a, 10));\n        team.push(TeamMember(0x54cA715a29a694bF837F5F2b74163B07Ad3F3E8b, 10));\n\n        token = new Token(\"Token\", \"TKN\", 8, TOKEN_SUPPLY, CROWD_FUNDING_SHARE + TEAM_SHARE, address(this));\n    }\n\n    function getBalance() public view returns (uint) {\n        return token.balanceOf(msg.sender);\n    }\n\n    modifier onlyAfterCrowdFundingOpens {\n        require(SALE_OPEN_DATE >= block.timestamp);\n        _;\n    }\n\n    modifier onlyAfterFundsUnlock {\n        require(FUNDS_UNLOCK_DATE >= block.timestamp);\n        _;\n    }\n\n    function () external payable {\n        buyTokens(msg.sender);\n    }\n\n    function distributeTokensToTeam() public onlyOwner onlyAfterFundsUnlock {\n        uint16 totalShare = 0;\n        for (uint i = 0; i < team.length; i++) {\n            totalShare += team[i].percent;\n        }\n        require (totalShare == 100);\n\n        for (uint j = 0; j < team.length; j++) {\n            token.transfer(team[j].wallet, (team[j].percent / 100) * TEAM_SHARE);\n        }\n    }\n\n    function buyTokens(address _beneficiary) public onlyAfterCrowdFundingOpens payable {\n        uint256 weiAmount = msg.value;\n        _preValidatePurchase(_beneficiary, weiAmount);\n\n        uint256 tokens = _getTokenAmount(weiAmount);\n\n        require (tokensSold + tokens <= CROWD_FUNDING_SHARE);\n\n        weiRaised = weiRaised.add(weiAmount);\n        tokensSold += tokens;\n\n        _processPurchase(_beneficiary, tokens);\n        emit TokenPurchase(\n        msg.sender,\n        _beneficiary,\n        weiAmount,\n        tokens\n        );\n\n        _forwardFunds();\n    }\n\n    function _preValidatePurchase(address _beneficiary, uint256 _weiAmount) internal {\n        require(_beneficiary != address(0));\n        require(_weiAmount != 0);\n    }\n\n    function _deliverTokens(address _beneficiary, uint256 _tokenAmount) internal onlyAfterCrowdFundingOpens {\n        token.transfer(_beneficiary, _tokenAmount);\n    }\n\n    function _processPurchase(address _beneficiary, uint256 _tokenAmount) internal {\n        _deliverTokens(_beneficiary, _tokenAmount);\n    }\n\n    function _getTokenAmount(uint256 _weiAmount) internal view returns (uint256) {\n        uint256 etherAmount = _weiAmount / 1000000000000000000;\n        return etherAmount.mul(rate);\n    }\n\n    function _forwardFunds() internal {\n        wallet.transfer(msg.value);\n    }\n}\n",
  "sourcePath": "/media/sami/Local Disk/Workspace/Solidity/Crowdfunding/contracts/CrowdFunding.sol",
  "compiler": {
    "name": "solc",
    "version": "0.4.23+commit.124ca40d.Emscripten.clang"
  },
  "schemaVersion": "2.0.0",
  "updatedAt": "2018-05-07T12:46:45.326Z"
}