{
  "contractName": "Receiver",
  "abi": [
    {
      "payable": false,
      "stateMutability": "nonpayable",
      "type": "fallback"
    },
    {
      "anonymous": false,
      "inputs": [
        {
          "indexed": false,
          "name": "i",
          "type": "uint256"
        },
        {
          "indexed": false,
          "name": "token",
          "type": "address"
        },
        {
          "indexed": false,
          "name": "sender",
          "type": "address"
        },
        {
          "indexed": false,
          "name": "value",
          "type": "uint256"
        }
      ],
      "name": "LogTokenPayable",
      "type": "event"
    },
    {
      "constant": false,
      "inputs": [
        {
          "name": "token",
          "type": "address"
        }
      ],
      "name": "supportsToken",
      "outputs": [
        {
          "name": "",
          "type": "bool"
        }
      ],
      "payable": false,
      "stateMutability": "nonpayable",
      "type": "function"
    },
    {
      "constant": false,
      "inputs": [
        {
          "name": "_sender",
          "type": "address"
        },
        {
          "name": "_origin",
          "type": "address"
        },
        {
          "name": "_value",
          "type": "uint256"
        },
        {
          "name": "_data",
          "type": "bytes"
        }
      ],
      "name": "tokenFallback",
      "outputs": [
        {
          "name": "ok",
          "type": "bool"
        }
      ],
      "payable": false,
      "stateMutability": "nonpayable",
      "type": "function"
    }
  ],
  "bytecode": "0x608060405234801561001057600080fd5b5061073e806100206000396000f30060806040526004361061004c576000357c0100000000000000000000000000000000000000000000000000000000900463ffffffff168063061f76501461016c5780634c123019146101c7575b34801561005857600080fd5b50600660009054906101000a900460ff16151561007457600080fd5b7ff2437bb3d950b968625757c8878714de92924bf3f774677a83c75a8cb34abd7d60008060000160009054906101000a900473ffffffffffffffffffffffffffffffffffffffff16600060010160009054906101000a900473ffffffffffffffffffffffffffffffffffffffff16600060030154604051808581526020018473ffffffffffffffffffffffffffffffffffffffff1673ffffffffffffffffffffffffffffffffffffffff1681526020018373ffffffffffffffffffffffffffffffffffffffff1673ffffffffffffffffffffffffffffffffffffffff16815260200182815260200194505050505060405180910390a1005b34801561017857600080fd5b506101ad600480360381019080803573ffffffffffffffffffffffffffffffffffffffff169060200190929190505050610292565b604051808215151515815260200191505060405180910390f35b3480156101d357600080fd5b50610278600480360381019080803573ffffffffffffffffffffffffffffffffffffffff169060200190929190803573ffffffffffffffffffffffffffffffffffffffff16906020019092919080359060200190929190803590602001908201803590602001908080601f016020809104026020016040519081016040528093929190818152602001838380828437820191505050505050919291929050505061029d565b604051808215151515815260200191505060405180910390f35b600060019050919050565b60006102a833610292565b15156102b7576000905061055e565b60c0604051908101604052803373ffffffffffffffffffffffffffffffffffffffff1681526020018673ffffffffffffffffffffffffffffffffffffffff1681526020018573ffffffffffffffffffffffffffffffffffffffff16815260200184815260200183815260200161032c84610566565b7bffffffffffffffffffffffffffffffffffffffffffffffffffffffff19168152506000808201518160000160006101000a81548173ffffffffffffffffffffffffffffffffffffffff021916908373ffffffffffffffffffffffffffffffffffffffff16021790555060208201518160010160006101000a81548173ffffffffffffffffffffffffffffffffffffffff021916908373ffffffffffffffffffffffffffffffffffffffff16021790555060408201518160020160006101000a81548173ffffffffffffffffffffffffffffffffffffffff021916908373ffffffffffffffffffffffffffffffffffffffff16021790555060608201518160030155608082015181600401908051906020019061044a92919061066d565b5060a08201518160050160006101000a81548163ffffffff02191690837c0100000000000000000000000000000000000000000000000000000000900402179055509050506001600660006101000a81548160ff0219169083151502179055503073ffffffffffffffffffffffffffffffffffffffff168260405180828051906020019080838360005b838110156104ef5780820151818401526020810190506104d4565b50505050905090810190601f16801561051c5780820380516001836020036101000a031916815260200191505b50915050600060405180830381855af4915050151561053e576000905061055e565b6000600660006101000a81548160ff021916908315150217905550600190505b949350505050565b6000806000600484511061057b57600461057e565b83515b9150600090505b818110156106665780600183030360080260020a84828151811015156105a757fe5b9060200101517f010000000000000000000000000000000000000000000000000000000000000090047f0100000000000000000000000000000000000000000000000000000000000000027f0100000000000000000000000000000000000000000000000000000000000000900402837c01000000000000000000000000000000000000000000000000000000009004017c01000000000000000000000000000000000000000000000000000000000292508080600101915050610585565b5050919050565b828054600181600116156101000203166002900490600052602060002090601f016020900481019282601f106106ae57805160ff19168380011785556106dc565b828001600101855582156106dc579182015b828111156106db5782518255916020019190600101906106c0565b5b5090506106e991906106ed565b5090565b61070f91905b8082111561070b5760008160009055506001016106f3565b5090565b905600a165627a7a7230582099576c8f56e27c95ec726c81e5a30e1cda4cb062d4edbae3d1a980b13ccbc70c0029",
  "source": "pragma solidity ^0.4.8;\n\ncontract ERC223Receiver {\n    function tokenFallback(address _sender, address _origin, uint _value, bytes _data) returns (bool ok);\n}\n\ncontract Receiver is ERC223Receiver {\n\n    Tkn tkn;\n\n    struct Tkn {\n        address addr;\n        address sender;\n        address origin;\n        uint256 value;\n        bytes data;\n        bytes4 sig;\n    }\n\n    function () tokenPayable {\n        LogTokenPayable(0, tkn.addr, tkn.sender, tkn.value);\n    }\n\n    function supportsToken(address token) returns (bool) {\n        return true;\n    }\n\n    event LogTokenPayable(uint i, address token, address sender, uint value);\n\n    function tokenFallback(address _sender, address _origin, uint _value, bytes _data) returns (bool ok) {\n        if (!supportsToken(msg.sender)) return false;\n\n        tkn = Tkn(msg.sender, _sender, _origin, _value, _data, getSig(_data));\n        __isTokenFallback = true;\n        if (!address(this).delegatecall(_data)) return false;\n\n        __isTokenFallback = false;\n\n        return true;\n    }\n\n    function getSig(bytes _data) private returns (bytes4 sig) {\n        uint l = _data.length < 4 ? _data.length : 4;\n        for (uint i = 0; i < l; i++) {\n            sig = bytes4(uint(sig) + uint(_data[i]) * (2 ** (8 * (l - 1 - i))));\n        }\n    }\n\n    bool __isTokenFallback;\n\n    modifier tokenPayable {\n        if (!__isTokenFallback) throw;\n        _;\n    }\n}",
  "sourcePath": "/media/sami/Local Disk/Workspace/Solidity/Crowdfunding/contracts/Receiver.sol",
  "compiler": {
    "name": "solc",
    "version": "0.4.23+commit.124ca40d.Emscripten.clang"
  },
  "schemaVersion": "2.0.0",
  "updatedAt": "2018-05-04T11:32:04.128Z"
}