{
  "contractName": "Token",
  "abi": [
    {
      "constant": true,
      "inputs": [],
      "name": "name",
      "outputs": [
        {
          "name": "",
          "type": "string"
        }
      ],
      "payable": false,
      "stateMutability": "view",
      "type": "function"
    },
    {
      "constant": true,
      "inputs": [],
      "name": "lastRewardEthBlockNumber",
      "outputs": [
        {
          "name": "",
          "type": "uint256"
        }
      ],
      "payable": false,
      "stateMutability": "view",
      "type": "function"
    },
    {
      "constant": true,
      "inputs": [],
      "name": "rewardEra",
      "outputs": [
        {
          "name": "",
          "type": "uint256"
        }
      ],
      "payable": false,
      "stateMutability": "view",
      "type": "function"
    },
    {
      "constant": true,
      "inputs": [],
      "name": "decimals",
      "outputs": [
        {
          "name": "",
          "type": "uint8"
        }
      ],
      "payable": false,
      "stateMutability": "view",
      "type": "function"
    },
    {
      "constant": true,
      "inputs": [],
      "name": "maxSupplyForEra",
      "outputs": [
        {
          "name": "",
          "type": "uint256"
        }
      ],
      "payable": false,
      "stateMutability": "view",
      "type": "function"
    },
    {
      "constant": true,
      "inputs": [],
      "name": "tokensMinted",
      "outputs": [
        {
          "name": "",
          "type": "uint256"
        }
      ],
      "payable": false,
      "stateMutability": "view",
      "type": "function"
    },
    {
      "constant": true,
      "inputs": [],
      "name": "lastRewardTo",
      "outputs": [
        {
          "name": "",
          "type": "address"
        }
      ],
      "payable": false,
      "stateMutability": "view",
      "type": "function"
    },
    {
      "constant": true,
      "inputs": [],
      "name": "epochCount",
      "outputs": [
        {
          "name": "",
          "type": "uint256"
        }
      ],
      "payable": false,
      "stateMutability": "view",
      "type": "function"
    },
    {
      "constant": true,
      "inputs": [],
      "name": "_MAXIMUM_TARGET",
      "outputs": [
        {
          "name": "",
          "type": "uint256"
        }
      ],
      "payable": false,
      "stateMutability": "view",
      "type": "function"
    },
    {
      "constant": true,
      "inputs": [],
      "name": "miningTarget",
      "outputs": [
        {
          "name": "",
          "type": "uint256"
        }
      ],
      "payable": false,
      "stateMutability": "view",
      "type": "function"
    },
    {
      "constant": true,
      "inputs": [],
      "name": "challengeNumber",
      "outputs": [
        {
          "name": "",
          "type": "bytes32"
        }
      ],
      "payable": false,
      "stateMutability": "view",
      "type": "function"
    },
    {
      "constant": true,
      "inputs": [],
      "name": "symbol",
      "outputs": [
        {
          "name": "",
          "type": "string"
        }
      ],
      "payable": false,
      "stateMutability": "view",
      "type": "function"
    },
    {
      "constant": true,
      "inputs": [],
      "name": "_BLOCKS_PER_READJUSTMENT",
      "outputs": [
        {
          "name": "",
          "type": "uint256"
        }
      ],
      "payable": false,
      "stateMutability": "view",
      "type": "function"
    },
    {
      "constant": true,
      "inputs": [],
      "name": "lastRewardAmount",
      "outputs": [
        {
          "name": "",
          "type": "uint256"
        }
      ],
      "payable": false,
      "stateMutability": "view",
      "type": "function"
    },
    {
      "constant": true,
      "inputs": [],
      "name": "latestDifficultyPeriodStarted",
      "outputs": [
        {
          "name": "",
          "type": "uint256"
        }
      ],
      "payable": false,
      "stateMutability": "view",
      "type": "function"
    },
    {
      "constant": true,
      "inputs": [],
      "name": "_MINIMUM_TARGET",
      "outputs": [
        {
          "name": "",
          "type": "uint256"
        }
      ],
      "payable": false,
      "stateMutability": "view",
      "type": "function"
    },
    {
      "inputs": [
        {
          "name": "_name",
          "type": "string"
        },
        {
          "name": "_symbol",
          "type": "string"
        },
        {
          "name": "_decimals",
          "type": "uint8"
        },
        {
          "name": "_totalSupply",
          "type": "uint256"
        },
        {
          "name": "_initialBalance",
          "type": "uint256"
        },
        {
          "name": "_crowdFundingAddress",
          "type": "address"
        }
      ],
      "payable": false,
      "stateMutability": "nonpayable",
      "type": "constructor"
    },
    {
      "anonymous": false,
      "inputs": [
        {
          "indexed": true,
          "name": "from",
          "type": "address"
        },
        {
          "indexed": false,
          "name": "reward_amount",
          "type": "uint256"
        },
        {
          "indexed": false,
          "name": "epochCount",
          "type": "uint256"
        },
        {
          "indexed": false,
          "name": "newChallengeNumber",
          "type": "bytes32"
        }
      ],
      "name": "Mint",
      "type": "event"
    },
    {
      "anonymous": false,
      "inputs": [
        {
          "indexed": true,
          "name": "from",
          "type": "address"
        },
        {
          "indexed": true,
          "name": "to",
          "type": "address"
        },
        {
          "indexed": false,
          "name": "value",
          "type": "uint256"
        }
      ],
      "name": "Transfer",
      "type": "event"
    },
    {
      "anonymous": false,
      "inputs": [
        {
          "indexed": true,
          "name": "owner",
          "type": "address"
        },
        {
          "indexed": true,
          "name": "spender",
          "type": "address"
        },
        {
          "indexed": false,
          "name": "value",
          "type": "uint256"
        }
      ],
      "name": "Approval",
      "type": "event"
    },
    {
      "constant": true,
      "inputs": [],
      "name": "totalSupply",
      "outputs": [
        {
          "name": "",
          "type": "uint256"
        }
      ],
      "payable": false,
      "stateMutability": "view",
      "type": "function"
    },
    {
      "constant": true,
      "inputs": [
        {
          "name": "_owner",
          "type": "address"
        }
      ],
      "name": "balanceOf",
      "outputs": [
        {
          "name": "",
          "type": "uint256"
        }
      ],
      "payable": false,
      "stateMutability": "view",
      "type": "function"
    },
    {
      "constant": false,
      "inputs": [
        {
          "name": "_to",
          "type": "address"
        },
        {
          "name": "_value",
          "type": "uint256"
        },
        {
          "name": "_data",
          "type": "bytes"
        }
      ],
      "name": "transfer",
      "outputs": [
        {
          "name": "success",
          "type": "bool"
        }
      ],
      "payable": false,
      "stateMutability": "nonpayable",
      "type": "function"
    },
    {
      "constant": false,
      "inputs": [
        {
          "name": "_to",
          "type": "address"
        },
        {
          "name": "_value",
          "type": "uint256"
        }
      ],
      "name": "transfer",
      "outputs": [
        {
          "name": "success",
          "type": "bool"
        }
      ],
      "payable": false,
      "stateMutability": "nonpayable",
      "type": "function"
    },
    {
      "constant": false,
      "inputs": [
        {
          "name": "_from",
          "type": "address"
        },
        {
          "name": "_to",
          "type": "address"
        },
        {
          "name": "_value",
          "type": "uint256"
        }
      ],
      "name": "transferFrom",
      "outputs": [
        {
          "name": "success",
          "type": "bool"
        }
      ],
      "payable": false,
      "stateMutability": "nonpayable",
      "type": "function"
    },
    {
      "constant": false,
      "inputs": [
        {
          "name": "_from",
          "type": "address"
        },
        {
          "name": "_to",
          "type": "address"
        },
        {
          "name": "_value",
          "type": "uint256"
        },
        {
          "name": "_data",
          "type": "bytes"
        }
      ],
      "name": "transferFrom",
      "outputs": [
        {
          "name": "success",
          "type": "bool"
        }
      ],
      "payable": false,
      "stateMutability": "nonpayable",
      "type": "function"
    },
    {
      "constant": false,
      "inputs": [
        {
          "name": "_spender",
          "type": "address"
        },
        {
          "name": "_value",
          "type": "uint256"
        }
      ],
      "name": "approve",
      "outputs": [
        {
          "name": "",
          "type": "bool"
        }
      ],
      "payable": false,
      "stateMutability": "nonpayable",
      "type": "function"
    },
    {
      "constant": true,
      "inputs": [
        {
          "name": "_owner",
          "type": "address"
        },
        {
          "name": "_spender",
          "type": "address"
        }
      ],
      "name": "allowance",
      "outputs": [
        {
          "name": "",
          "type": "uint256"
        }
      ],
      "payable": false,
      "stateMutability": "view",
      "type": "function"
    },
    {
      "constant": false,
      "inputs": [
        {
          "name": "_spender",
          "type": "address"
        },
        {
          "name": "_addedValue",
          "type": "uint256"
        }
      ],
      "name": "increaseApproval",
      "outputs": [
        {
          "name": "",
          "type": "bool"
        }
      ],
      "payable": false,
      "stateMutability": "nonpayable",
      "type": "function"
    },
    {
      "constant": false,
      "inputs": [
        {
          "name": "_spender",
          "type": "address"
        },
        {
          "name": "_subtractedValue",
          "type": "uint256"
        }
      ],
      "name": "decreaseApproval",
      "outputs": [
        {
          "name": "",
          "type": "bool"
        }
      ],
      "payable": false,
      "stateMutability": "nonpayable",
      "type": "function"
    },
    {
      "constant": false,
      "inputs": [
        {
          "name": "nonce",
          "type": "uint256"
        },
        {
          "name": "challenge_digest",
          "type": "bytes32"
        }
      ],
      "name": "mint",
      "outputs": [
        {
          "name": "success",
          "type": "bool"
        }
      ],
      "payable": false,
      "stateMutability": "nonpayable",
      "type": "function"
    },
    {
      "constant": true,
      "inputs": [],
      "name": "getChallengeNumber",
      "outputs": [
        {
          "name": "",
          "type": "bytes32"
        }
      ],
      "payable": false,
      "stateMutability": "view",
      "type": "function"
    },
    {
      "constant": true,
      "inputs": [],
      "name": "getMiningDifficulty",
      "outputs": [
        {
          "name": "",
          "type": "uint256"
        }
      ],
      "payable": false,
      "stateMutability": "view",
      "type": "function"
    },
    {
      "constant": true,
      "inputs": [],
      "name": "getMiningTarget",
      "outputs": [
        {
          "name": "",
          "type": "uint256"
        }
      ],
      "payable": false,
      "stateMutability": "view",
      "type": "function"
    },
    {
      "constant": true,
      "inputs": [],
      "name": "getMiningReward",
      "outputs": [
        {
          "name": "",
          "type": "uint256"
        }
      ],
      "payable": false,
      "stateMutability": "view",
      "type": "function"
    },
    {
      "constant": true,
      "inputs": [
        {
          "name": "nonce",
          "type": "uint256"
        },
        {
          "name": "challenge_digest",
          "type": "bytes32"
        },
        {
          "name": "challenge_number",
          "type": "bytes32"
        }
      ],
      "name": "getMintDigest",
      "outputs": [
        {
          "name": "digesttest",
          "type": "bytes32"
        }
      ],
      "payable": false,
      "stateMutability": "view",
      "type": "function"
    },
    {
      "constant": true,
      "inputs": [
        {
          "name": "nonce",
          "type": "uint256"
        },
        {
          "name": "challenge_digest",
          "type": "bytes32"
        },
        {
          "name": "challenge_number",
          "type": "bytes32"
        },
        {
          "name": "testTarget",
          "type": "uint256"
        }
      ],
      "name": "checkMintSolution",
      "outputs": [
        {
          "name": "success",
          "type": "bool"
        }
      ],
      "payable": false,
      "stateMutability": "view",
      "type": "function"
    }
  ],
  "bytecode": "0x6080604052610400600855620100006009557d040000000000000000000000000000000000000000000000000000000000600a556000600d553480156200004557600080fd5b5060405162002a5f38038062002a5f8339810180604052810190808051820192919060200180518201929190602001805190602001909291908051906020019092919080519060200190929190805190602001909291905050508560009080519060200190620000b792919062000615565b508460019080519060200190620000d092919062000615565b5083600260006101000a81548160ff021916908360ff1602179055508260058190555081600360008373ffffffffffffffffffffffffffffffffffffffff1673ffffffffffffffffffffffffffffffffffffffff16815260200190815260200160002081905550816013600082825401925050819055506200016b600284620001a664010000000002620018f4179091906401000000009004565b600e81905550600a54600b81905550436006819055506200019a620001bd640100000000026401000000009004565b505050505050620006c4565b60008183811515620001b457fe5b04905092915050565b600e54620001fd620001dd620002c8640100000000026401000000009004565b6013546200030f640100000000026200190a179091906401000000009004565b1180156200020d57506027600d54105b1562000220576001600d5401600d819055505b6200024d6001600d540160020a600554620001a664010000000002620018f4179091906401000000009004565b60055403600e819055506200027d60016007546200030f640100000000026200190a179091906401000000009004565b60078190555060006008546007548115156200029557fe5b061415620002b757620002b66200032c640100000000026401000000009004565b5b6001430340600c8160001916905550565b60006200030a600d5460020a600260009054906101000a900460ff1660ff16600a0a603202620001a664010000000002620018f4179091906401000000009004565b905090565b600081830190508281101515156200032357fe5b80905092915050565b6000806000806000806000600654430396506008549550603c86029450848710156200045d5762000398876200037b606488620005a1640100000000026200230b179091906401000000009004565b620001a664010000000002620018f4179091906401000000009004565b9350620003e26103e8620003c5606487620005dd64010000000002620019db179091906401000000009004565b620005f76401000000000262002343179091906401000000009004565b9250620004516200043184620004146107d0600b54620001a664010000000002620018f4179091906401000000009004565b620005a1640100000000026200230b179091906401000000009004565b600b54620005dd64010000000002620019db179091906401000000009004565b600b8190555062000563565b620004a3856200048660648a620005a1640100000000026200230b179091906401000000009004565b620001a664010000000002620018f4179091906401000000009004565b9150620004ed6103e8620004d0606485620005dd64010000000002620019db179091906401000000009004565b620005f76401000000000262002343179091906401000000009004565b90506200055c6200053c826200051f6107d0600b54620001a664010000000002620018f4179091906401000000009004565b620005a1640100000000026200230b179091906401000000009004565b600b546200030f640100000000026200190a179091906401000000009004565b600b819055505b43600681905550600954600b5410156200058157600954600b819055505b600a54600b5411156200059857600a54600b819055505b50505050505050565b600080831415620005b65760009050620005d7565b8183029050818382811515620005c857fe5b04141515620005d357fe5b8090505b92915050565b6000828211151515620005ec57fe5b818303905092915050565b6000818311156200060b578190506200060f565b8290505b92915050565b828054600181600116156101000203166002900490600052602060002090601f016020900481019282601f106200065857805160ff191683800117855562000689565b8280016001018555821562000689579182015b82811115620006885782518255916020019190600101906200066b565b5b5090506200069891906200069c565b5090565b620006c191905b80821115620006bd576000816000905550600101620006a3565b5090565b90565b61238b80620006d46000396000f3006080604052600436106101a1576000357c0100000000000000000000000000000000000000000000000000000000900463ffffffff16806306fdde03146101a6578063095ea7b314610236578063163aa00d1461029b57806317da485f146102c65780631801fbe5146102f157806318160ddd1461034457806323b872dd1461036f5780632d38bf7a146103f4578063313ce5671461041f57806332e9970814610450578063490203a71461047b5780634ef37628146104a65780634fa972e1146104d957806366188463146105045780636de9f32b146105695780636fd396d61461059457806370a08231146105eb57806381269a5614610642578063829965cc146106ad57806387a2a9d6146106d85780638a769d35146107035780638ae0368b1461072e57806395d89b411461076157806397566aa0146107f1578063a9059cbb14610856578063ab67aa58146108bb578063b5ade81b14610986578063bafedcaa146109b1578063be45fd62146109dc578063cb9ae70714610a87578063d73dd62314610ab2578063dc6e9cf914610b17578063dd62ed3e14610b42575b600080fd5b3480156101b257600080fd5b506101bb610bb9565b6040518080602001828103825283818151815260200191508051906020019080838360005b838110156101fb5780820151818401526020810190506101e0565b50505050905090810190601f1680156102285780820380516001836020036101000a031916815260200191505b509250505060405180910390f35b34801561024257600080fd5b50610281600480360381019080803573ffffffffffffffffffffffffffffffffffffffff16906020019092919080359060200190929190505050610c57565b604051808215151515815260200191505060405180910390f35b3480156102a757600080fd5b506102b0610d49565b6040518082815260200191505060405180910390f35b3480156102d257600080fd5b506102db610d4f565b6040518082815260200191505060405180910390f35b3480156102fd57600080fd5b5061032a600480360381019080803590602001909291908035600019169060200190929190505050610d6d565b604051808215151515815260200191505060405180910390f35b34801561035057600080fd5b50610359610ffd565b6040518082815260200191505060405180910390f35b34801561037b57600080fd5b506103da600480360381019080803573ffffffffffffffffffffffffffffffffffffffff169060200190929190803573ffffffffffffffffffffffffffffffffffffffff16906020019092919080359060200190929190505050611007565b604051808215151515815260200191505060405180910390f35b34801561040057600080fd5b50610409611052565b6040518082815260200191505060405180910390f35b34801561042b57600080fd5b50610434611058565b604051808260ff1660ff16815260200191505060405180910390f35b34801561045c57600080fd5b5061046561106b565b6040518082815260200191505060405180910390f35b34801561048757600080fd5b50610490611075565b6040518082815260200191505060405180910390f35b3480156104b257600080fd5b506104bb6110ac565b60405180826000191660001916815260200191505060405180910390f35b3480156104e557600080fd5b506104ee6110b6565b6040518082815260200191505060405180910390f35b34801561051057600080fd5b5061054f600480360381019080803573ffffffffffffffffffffffffffffffffffffffff169060200190929190803590602001909291905050506110bc565b604051808215151515815260200191505060405180910390f35b34801561057557600080fd5b5061057e61134d565b6040518082815260200191505060405180910390f35b3480156105a057600080fd5b506105a9611353565b604051808273ffffffffffffffffffffffffffffffffffffffff1673ffffffffffffffffffffffffffffffffffffffff16815260200191505060405180910390f35b3480156105f757600080fd5b5061062c600480360381019080803573ffffffffffffffffffffffffffffffffffffffff169060200190929190505050611379565b6040518082815260200191505060405180910390f35b34801561064e57600080fd5b506106936004803603810190808035906020019092919080356000191690602001909291908035600019169060200190929190803590602001909291905050506113c2565b604051808215151515815260200191505060405180910390f35b3480156106b957600080fd5b506106c2611457565b6040518082815260200191505060405180910390f35b3480156106e457600080fd5b506106ed61145d565b6040518082815260200191505060405180910390f35b34801561070f57600080fd5b50610718611463565b6040518082815260200191505060405180910390f35b34801561073a57600080fd5b50610743611469565b60405180826000191660001916815260200191505060405180910390f35b34801561076d57600080fd5b5061077661146f565b6040518080602001828103825283818151815260200191508051906020019080838360005b838110156107b657808201518184015260208101905061079b565b50505050905090810190601f1680156107e35780820380516001836020036101000a031916815260200191505b509250505060405180910390f35b3480156107fd57600080fd5b50610838600480360381019080803590602001909291908035600019169060200190929190803560001916906020019092919050505061150d565b60405180826000191660001916815260200191505060405180910390f35b34801561086257600080fd5b506108a1600480360381019080803573ffffffffffffffffffffffffffffffffffffffff16906020019092919080359060200190929190505050611586565b604051808215151515815260200191505060405180910390f35b3480156108c757600080fd5b5061096c600480360381019080803573ffffffffffffffffffffffffffffffffffffffff169060200190929190803573ffffffffffffffffffffffffffffffffffffffff16906020019092919080359060200190929190803590602001908201803590602001908080601f01602080910402602001604051908101604052809392919081815260200183838082843782019150505050505091929192905050506115cf565b604051808215151515815260200191505060405180910390f35b34801561099257600080fd5b5061099b611615565b6040518082815260200191505060405180910390f35b3480156109bd57600080fd5b506109c661161b565b6040518082815260200191505060405180910390f35b3480156109e857600080fd5b50610a6d600480360381019080803573ffffffffffffffffffffffffffffffffffffffff16906020019092919080359060200190929190803590602001908201803590602001908080601f0160208091040260200160405190810160405280939291908181526020018383808284378201915050505050509192919290505050611621565b604051808215151515815260200191505060405180910390f35b348015610a9357600080fd5b50610a9c611665565b6040518082815260200191505060405180910390f35b348015610abe57600080fd5b50610afd600480360381019080803573ffffffffffffffffffffffffffffffffffffffff1690602001909291908035906020019092919050505061166b565b604051808215151515815260200191505060405180910390f35b348015610b2357600080fd5b50610b2c611867565b6040518082815260200191505060405180910390f35b348015610b4e57600080fd5b50610ba3600480360381019080803573ffffffffffffffffffffffffffffffffffffffff169060200190929190803573ffffffffffffffffffffffffffffffffffffffff16906020019092919050505061186d565b6040518082815260200191505060405180910390f35b60008054600181600116156101000203166002900480601f016020809104026020016040519081016040528092919081815260200182805460018160011615610100020316600290048015610c4f5780601f10610c2457610100808354040283529160200191610c4f565b820191906000526020600020905b815481529060010190602001808311610c3257829003601f168201915b505050505081565b600081600460003373ffffffffffffffffffffffffffffffffffffffff1673ffffffffffffffffffffffffffffffffffffffff16815260200190815260200160002060008573ffffffffffffffffffffffffffffffffffffffff1673ffffffffffffffffffffffffffffffffffffffff168152602001908152602001600020819055508273ffffffffffffffffffffffffffffffffffffffff163373ffffffffffffffffffffffffffffffffffffffff167f8c5be1e5ebec7d5bd14f71427d1e84f3dd0314c0f7b2291e5b200ac8c7c3b925846040518082815260200191505060405180910390a36001905092915050565b60115481565b6000610d68600b54600a546118f490919063ffffffff16565b905090565b600080600080600c5433876040518084600019166000191681526020018373ffffffffffffffffffffffffffffffffffffffff1673ffffffffffffffffffffffffffffffffffffffff166c0100000000000000000000000002815260140182815260200193505050506040518091039020925084600019168360001916141515610df657600080fd5b600b5483600190041115610e0957600080fd5b60126000600c54600019166000191681526020019081526020016000205491508260126000600c5460001916600019168152602001908152602001600020816000191690555060006001028260001916141515610e6557600080fd5b610e6d611075565b9050610ec181600360003373ffffffffffffffffffffffffffffffffffffffff1673ffffffffffffffffffffffffffffffffffffffff1681526020019081526020016000205461190a90919063ffffffff16565b600360003373ffffffffffffffffffffffffffffffffffffffff1673ffffffffffffffffffffffffffffffffffffffff16815260200190815260200160002081905550610f198160135461190a90919063ffffffff16565b601381905550600e5460135411151515610f2f57fe5b33600f60006101000a81548173ffffffffffffffffffffffffffffffffffffffff021916908373ffffffffffffffffffffffffffffffffffffffff1602179055508060108190555043601181905550610f86611926565b3373ffffffffffffffffffffffffffffffffffffffff167fcf6fbb9dcea7d07263ab4f5c3a92f53af33dffc421d9d121e1c74b307e68189d82600754600c54604051808481526020018381526020018260001916600019168152602001935050505060405180910390a26001935050505092915050565b6000600554905090565b600061104984848460006040519080825280601f01601f1916602001820160405280156110435781602001602082028038833980820191505090505b506115cf565b90509392505050565b600d5481565b600260009054906101000a900460ff1681565b6000600b54905090565b60006110a7600d5460020a600260009054906101000a900460ff1660ff16600a0a6032026118f490919063ffffffff16565b905090565b6000600c54905090565b600e5481565b600080600460003373ffffffffffffffffffffffffffffffffffffffff1673ffffffffffffffffffffffffffffffffffffffff16815260200190815260200160002060008573ffffffffffffffffffffffffffffffffffffffff1673ffffffffffffffffffffffffffffffffffffffff168152602001908152602001600020549050808311156111cd576000600460003373ffffffffffffffffffffffffffffffffffffffff1673ffffffffffffffffffffffffffffffffffffffff16815260200190815260200160002060008673ffffffffffffffffffffffffffffffffffffffff1673ffffffffffffffffffffffffffffffffffffffff16815260200190815260200160002081905550611261565b6111e083826119db90919063ffffffff16565b600460003373ffffffffffffffffffffffffffffffffffffffff1673ffffffffffffffffffffffffffffffffffffffff16815260200190815260200160002060008673ffffffffffffffffffffffffffffffffffffffff1673ffffffffffffffffffffffffffffffffffffffff168152602001908152602001600020819055505b8373ffffffffffffffffffffffffffffffffffffffff163373ffffffffffffffffffffffffffffffffffffffff167f8c5be1e5ebec7d5bd14f71427d1e84f3dd0314c0f7b2291e5b200ac8c7c3b925600460003373ffffffffffffffffffffffffffffffffffffffff1673ffffffffffffffffffffffffffffffffffffffff16815260200190815260200160002060008873ffffffffffffffffffffffffffffffffffffffff1673ffffffffffffffffffffffffffffffffffffffff168152602001908152602001600020546040518082815260200191505060405180910390a3600191505092915050565b60135481565b600f60009054906101000a900473ffffffffffffffffffffffffffffffffffffffff1681565b6000600360008373ffffffffffffffffffffffffffffffffffffffff1673ffffffffffffffffffffffffffffffffffffffff168152602001908152602001600020549050919050565b6000808333876040518084600019166000191681526020018373ffffffffffffffffffffffffffffffffffffffff1673ffffffffffffffffffffffffffffffffffffffff166c01000000000000000000000000028152601401828152602001935050505060405180910390209050828160019004111561144157600080fd5b8460001916816000191614915050949350505050565b60075481565b600a5481565b600b5481565b600c5481565b60018054600181600116156101000203166002900480601f0160208091040260200160405190810160405280929190818152602001828054600181600116156101000203166002900480156115055780601f106114da57610100808354040283529160200191611505565b820191906000526020600020905b8154815290600101906020018083116114e857829003601f168201915b505050505081565b6000808233866040518084600019166000191681526020018373ffffffffffffffffffffffffffffffffffffffff1673ffffffffffffffffffffffffffffffffffffffff166c01000000000000000000000000028152601401828152602001935050505060405180910390209050809150509392505050565b60006115c7838360006040519080825280601f01601f1916602001820160405280156115c15781602001602082028038833980820191505090505b50611621565b905092915050565b60006115dc8585856119f4565b15156115e757600080fd5b6115f084611db3565b156116085761160185858585611dc6565b905061160d565b600190505b949350505050565b60085481565b60105481565b600061162d8484611f56565b151561163857600080fd5b61164184611db3565b156116595761165233858585611dc6565b905061165e565b600190505b9392505050565b60065481565b60006116fc82600460003373ffffffffffffffffffffffffffffffffffffffff1673ffffffffffffffffffffffffffffffffffffffff16815260200190815260200160002060008673ffffffffffffffffffffffffffffffffffffffff1673ffffffffffffffffffffffffffffffffffffffff1681526020019081526020016000205461190a90919063ffffffff16565b600460003373ffffffffffffffffffffffffffffffffffffffff1673ffffffffffffffffffffffffffffffffffffffff16815260200190815260200160002060008573ffffffffffffffffffffffffffffffffffffffff1673ffffffffffffffffffffffffffffffffffffffff168152602001908152602001600020819055508273ffffffffffffffffffffffffffffffffffffffff163373ffffffffffffffffffffffffffffffffffffffff167f8c5be1e5ebec7d5bd14f71427d1e84f3dd0314c0f7b2291e5b200ac8c7c3b925600460003373ffffffffffffffffffffffffffffffffffffffff1673ffffffffffffffffffffffffffffffffffffffff16815260200190815260200160002060008773ffffffffffffffffffffffffffffffffffffffff1673ffffffffffffffffffffffffffffffffffffffff168152602001908152602001600020546040518082815260200191505060405180910390a36001905092915050565b60095481565b6000600460008473ffffffffffffffffffffffffffffffffffffffff1673ffffffffffffffffffffffffffffffffffffffff16815260200190815260200160002060008373ffffffffffffffffffffffffffffffffffffffff1673ffffffffffffffffffffffffffffffffffffffff16815260200190815260200160002054905092915050565b6000818381151561190157fe5b04905092915050565b6000818301905082811015151561191d57fe5b80905092915050565b600e54611945611934611075565b60135461190a90919063ffffffff16565b11801561195457506027600d54105b15611966576001600d5401600d819055505b6119836001600d540160020a6005546118f490919063ffffffff16565b60055403600e819055506119a3600160075461190a90919063ffffffff16565b60078190555060006008546007548115156119ba57fe5b0614156119ca576119c961217a565b5b6001430340600c8160001916905550565b60008282111515156119e957fe5b818303905092915050565b60008073ffffffffffffffffffffffffffffffffffffffff168373ffffffffffffffffffffffffffffffffffffffff1614151515611a3157600080fd5b600360008573ffffffffffffffffffffffffffffffffffffffff1673ffffffffffffffffffffffffffffffffffffffff168152602001908152602001600020548211151515611a7f57600080fd5b600460008573ffffffffffffffffffffffffffffffffffffffff1673ffffffffffffffffffffffffffffffffffffffff16815260200190815260200160002060003373ffffffffffffffffffffffffffffffffffffffff1673ffffffffffffffffffffffffffffffffffffffff168152602001908152602001600020548211151515611b0a57600080fd5b611b5c82600360008773ffffffffffffffffffffffffffffffffffffffff1673ffffffffffffffffffffffffffffffffffffffff168152602001908152602001600020546119db90919063ffffffff16565b600360008673ffffffffffffffffffffffffffffffffffffffff1673ffffffffffffffffffffffffffffffffffffffff16815260200190815260200160002081905550611bf182600360008673ffffffffffffffffffffffffffffffffffffffff1673ffffffffffffffffffffffffffffffffffffffff1681526020019081526020016000205461190a90919063ffffffff16565b600360008573ffffffffffffffffffffffffffffffffffffffff1673ffffffffffffffffffffffffffffffffffffffff16815260200190815260200160002081905550611cc382600460008773ffffffffffffffffffffffffffffffffffffffff1673ffffffffffffffffffffffffffffffffffffffff16815260200190815260200160002060003373ffffffffffffffffffffffffffffffffffffffff1673ffffffffffffffffffffffffffffffffffffffff168152602001908152602001600020546119db90919063ffffffff16565b600460008673ffffffffffffffffffffffffffffffffffffffff1673ffffffffffffffffffffffffffffffffffffffff16815260200190815260200160002060003373ffffffffffffffffffffffffffffffffffffffff1673ffffffffffffffffffffffffffffffffffffffff168152602001908152602001600020819055508273ffffffffffffffffffffffffffffffffffffffff168473ffffffffffffffffffffffffffffffffffffffff167fddf252ad1be2c89b69c2b068fc378daa952ba7f163c4a11628f55a4df523b3ef846040518082815260200191505060405180910390a3600190509392505050565b600080823b905060008111915050919050565b6000808490508073ffffffffffffffffffffffffffffffffffffffff16634c123019338887876040518563ffffffff167c0100000000000000000000000000000000000000000000000000000000028152600401808573ffffffffffffffffffffffffffffffffffffffff1673ffffffffffffffffffffffffffffffffffffffff1681526020018473ffffffffffffffffffffffffffffffffffffffff1673ffffffffffffffffffffffffffffffffffffffff16815260200183815260200180602001828103825283818151815260200191508051906020019080838360005b83811015611ec1578082015181840152602081019050611ea6565b50505050905090810190601f168015611eee5780820380516001836020036101000a031916815260200191505b5095505050505050602060405180830381600087803b158015611f1057600080fd5b505af1158015611f24573d6000803e3d6000fd5b505050506040513d6020811015611f3a57600080fd5b8101908080519060200190929190505050915050949350505050565b60008073ffffffffffffffffffffffffffffffffffffffff168373ffffffffffffffffffffffffffffffffffffffff1614151515611f9357600080fd5b600360003373ffffffffffffffffffffffffffffffffffffffff1673ffffffffffffffffffffffffffffffffffffffff168152602001908152602001600020548211151515611fe157600080fd5b61203382600360003373ffffffffffffffffffffffffffffffffffffffff1673ffffffffffffffffffffffffffffffffffffffff168152602001908152602001600020546119db90919063ffffffff16565b600360003373ffffffffffffffffffffffffffffffffffffffff1673ffffffffffffffffffffffffffffffffffffffff168152602001908152602001600020819055506120c882600360008673ffffffffffffffffffffffffffffffffffffffff1673ffffffffffffffffffffffffffffffffffffffff1681526020019081526020016000205461190a90919063ffffffff16565b600360008573ffffffffffffffffffffffffffffffffffffffff1673ffffffffffffffffffffffffffffffffffffffff168152602001908152602001600020819055508273ffffffffffffffffffffffffffffffffffffffff163373ffffffffffffffffffffffffffffffffffffffff167fddf252ad1be2c89b69c2b068fc378daa952ba7f163c4a11628f55a4df523b3ef846040518082815260200191505060405180910390a36001905092915050565b6000806000806000806000600654430396506008549550603c8602945084871015612239576121c5876121b760648861230b90919063ffffffff16565b6118f490919063ffffffff16565b93506121ef6103e86121e16064876119db90919063ffffffff16565b61234390919063ffffffff16565b925061222e61221d8461220f6107d0600b546118f490919063ffffffff16565b61230b90919063ffffffff16565b600b546119db90919063ffffffff16565b600b819055506122cf565b61225f8561225160648a61230b90919063ffffffff16565b6118f490919063ffffffff16565b91506122896103e861227b6064856119db90919063ffffffff16565b61234390919063ffffffff16565b90506122c86122b7826122a96107d0600b546118f490919063ffffffff16565b61230b90919063ffffffff16565b600b5461190a90919063ffffffff16565b600b819055505b43600681905550600954600b5410156122ec57600954600b819055505b600a54600b54111561230257600a54600b819055505b50505050505050565b60008083141561231e576000905061233d565b818302905081838281151561232f57fe5b0414151561233957fe5b8090505b92915050565b60008183111561235557819050612359565b8290505b929150505600a165627a7a72305820d0b67ae30e465794ab96e32c76d31ca5952cfcb1371cad03d2440a53c903989e0029",
  "source": "pragma solidity ^0.4.8;\n\nimport \"./SafeMath.sol\";\nimport \"./Receiver.sol\";\n\ncontract ERC223 {\n    function totalSupply() public view returns (uint256);\n    function balanceOf(address who) public view returns (uint256);\n    function transfer(address to, uint256 value) public returns (bool);\n    function transferFrom(address from, address to, uint256 value) public returns (bool);\n    function transfer(address to, uint value, bytes data) returns (bool ok);\n    function transferFrom(address from, address to, uint value, bytes data) returns (bool ok);\n    function allowance(address owner, address spender) public view returns (uint256);\n    function approve(address spender, uint256 value) public returns (bool);\n\n    event Transfer(address indexed from, address indexed to, uint256 value);\n    event Approval(address indexed owner, address indexed spender, uint256 value);\n}\n\ncontract Token is ERC223 {\n\n    using SafeMath for uint256;\n\n    string public name;\n    string public symbol;\n    uint8 public decimals;\n\n    mapping(address => uint256) balances;\n    mapping(address => mapping(address => uint256)) internal allowed;\n\n    uint256 totalSupply_;\n\n    uint public latestDifficultyPeriodStarted;\n    uint public epochCount;\n\n    uint public _BLOCKS_PER_READJUSTMENT = 1024;\n    uint public  _MINIMUM_TARGET = 2**16;\n    uint public  _MAXIMUM_TARGET = 2**234;\n\n    uint public miningTarget;\n    bytes32 public challengeNumber;\n\n    uint public rewardEra = 0;\n    uint public maxSupplyForEra;\n\n    address public lastRewardTo;\n    uint public lastRewardAmount;\n    uint public lastRewardEthBlockNumber;\n\n    mapping(bytes32 => bytes32) solutionForChallenge;\n\n    uint public tokensMinted;\n\n    event Mint(address indexed from, uint reward_amount, uint epochCount, bytes32 newChallengeNumber);\n\n    function Token(string _name, string _symbol, uint8 _decimals, uint _totalSupply, uint _initialBalance, address _crowdFundingAddress) {\n        name = _name;\n        symbol = _symbol;\n        decimals = _decimals;\n        totalSupply_ = _totalSupply;\n\n        balances[_crowdFundingAddress] = _initialBalance;\n        tokensMinted += _initialBalance;\n\n        maxSupplyForEra = _totalSupply.div(2);\n        miningTarget = _MAXIMUM_TARGET;\n\n        latestDifficultyPeriodStarted = block.number;\n\n        _startNewMiningEpoch();\n    }\n\n    function totalSupply() public view returns (uint256) {\n        return totalSupply_;\n    }\n\n    function balanceOf(address _owner) public view returns (uint256) {\n        return balances[_owner];\n    }\n\n    function transfer(address _to, uint _value, bytes _data) returns (bool success) {\n        if (!_transfer(_to, _value)) throw;\n        if (isContract(_to)) return contractFallback(msg.sender, _to, _value, _data);\n        return true;\n    }\n\n    function transferFrom(address _from, address _to, uint _value, bytes _data) returns (bool success) {\n        if (!_transferFrom(_from, _to, _value)) throw;\n        if (isContract(_to)) return contractFallback(_from, _to, _value, _data);\n        return true;\n    }\n\n    function transfer(address _to, uint _value) returns (bool success) {\n        return transfer(_to, _value, new bytes(0));\n    }\n\n    function transferFrom(address _from, address _to, uint _value) returns (bool success) {\n        return transferFrom(_from, _to, _value, new bytes(0));\n    }\n\n    function approve(address _spender, uint256 _value) public returns (bool) {\n        allowed[msg.sender][_spender] = _value;\n        emit Approval(msg.sender, _spender, _value);\n        return true;\n    }\n\n    function allowance(address _owner, address _spender) public view returns (uint256) {\n        return allowed[_owner][_spender];\n    }\n\n    function increaseApproval(address _spender, uint _addedValue) public returns (bool) {\n        allowed[msg.sender][_spender] = allowed[msg.sender][_spender].add(_addedValue);\n        emit Approval(msg.sender, _spender, allowed[msg.sender][_spender]);\n        return true;\n    }\n\n    function decreaseApproval(address _spender, uint _subtractedValue) public returns (bool) {\n        uint oldValue = allowed[msg.sender][_spender];\n        if (_subtractedValue > oldValue) {\n            allowed[msg.sender][_spender] = 0;\n        } else {\n            allowed[msg.sender][_spender] = oldValue.sub(_subtractedValue);\n        }\n        emit Approval(msg.sender, _spender, allowed[msg.sender][_spender]);\n        return true;\n    }\n\n    function _transfer(address _to, uint256 _value) internal returns (bool) {\n        require(_to != address(0));\n        require(_value <= balances[msg.sender]);\n        balances[msg.sender] = balances[msg.sender].sub(_value);\n        balances[_to] = balances[_to].add(_value);\n        emit Transfer(msg.sender, _to, _value);\n        return true;\n    }\n\n    function _transferFrom(address _from, address _to, uint256 _value) internal returns (bool) {\n        require(_to != address(0));\n        require(_value <= balances[_from]);\n        require(_value <= allowed[_from][msg.sender]);\n        balances[_from] = balances[_from].sub(_value);\n        balances[_to] = balances[_to].add(_value);\n        allowed[_from][msg.sender] = allowed[_from][msg.sender].sub(_value);\n        emit Transfer(_from, _to, _value);\n        return true;\n    }\n\n    function contractFallback(address _origin, address _to, uint _value, bytes _data) private returns (bool success) {\n        ERC223Receiver receiver = ERC223Receiver(_to);\n        return receiver.tokenFallback(msg.sender, _origin, _value, _data);\n    }\n\n    function isContract(address _addr) private returns (bool is_contract) {\n        uint length;\n        assembly {length := extcodesize(_addr)}\n        return length > 0;\n    }\n\n    function mint(uint256 nonce, bytes32 challenge_digest) public returns (bool success) {\n        bytes32 digest =  keccak256(challengeNumber, msg.sender, nonce );\n\n        if (digest != challenge_digest) revert();\n        if (uint256(digest) > miningTarget) revert();\n\n        bytes32 solution = solutionForChallenge[challengeNumber];\n        solutionForChallenge[challengeNumber] = digest;\n        if(solution != 0x0) revert();\n\n        uint reward_amount = getMiningReward();\n\n        balances[msg.sender] = balances[msg.sender].add(reward_amount);\n\n        tokensMinted = tokensMinted.add(reward_amount);\n\n        assert(tokensMinted <= maxSupplyForEra);\n\n        lastRewardTo = msg.sender;\n        lastRewardAmount = reward_amount;\n        lastRewardEthBlockNumber = block.number;\n\n        _startNewMiningEpoch();\n\n        Mint(msg.sender, reward_amount, epochCount, challengeNumber );\n\n        return true;\n    }\n\n    function _startNewMiningEpoch() internal {\n        if (tokensMinted.add(getMiningReward()) > maxSupplyForEra && rewardEra < 39) {\n            rewardEra = rewardEra + 1;\n        }\n\n        maxSupplyForEra = totalSupply_ - totalSupply_.div( 2**(rewardEra + 1));\n\n        epochCount = epochCount.add(1);\n\n        if (epochCount % _BLOCKS_PER_READJUSTMENT == 0) {\n            _reAdjustDifficulty();\n        }\n        challengeNumber = block.blockhash(block.number - 1);\n    }\n\n    function _reAdjustDifficulty() internal {\n        uint ethBlocksSinceLastDifficultyPeriod = block.number - latestDifficultyPeriodStarted;\n        uint epochsMined = _BLOCKS_PER_READJUSTMENT;\n        uint targetEthBlocksPerDiffPeriod = epochsMined * 60;\n\n        if (ethBlocksSinceLastDifficultyPeriod < targetEthBlocksPerDiffPeriod) {\n            uint excess_block_pct = (targetEthBlocksPerDiffPeriod.mul(100)).div( ethBlocksSinceLastDifficultyPeriod );\n            uint excess_block_pct_extra = excess_block_pct.sub(100).limitLessThan(1000);\n            miningTarget = miningTarget.sub(miningTarget.div(2000).mul(excess_block_pct_extra));\n        } else {\n            uint shortage_block_pct = (ethBlocksSinceLastDifficultyPeriod.mul(100)).div( targetEthBlocksPerDiffPeriod );\n            uint shortage_block_pct_extra = shortage_block_pct.sub(100).limitLessThan(1000);\n            miningTarget = miningTarget.add(miningTarget.div(2000).mul(shortage_block_pct_extra));\n        }\n\n        latestDifficultyPeriodStarted = block.number;\n\n        if (miningTarget < _MINIMUM_TARGET) {\n            miningTarget = _MINIMUM_TARGET;\n        }\n\n        if (miningTarget > _MAXIMUM_TARGET) {\n            miningTarget = _MAXIMUM_TARGET;\n        }\n    }\n\n    function getChallengeNumber() public constant returns (bytes32) {\n        return challengeNumber;\n    }\n\n    function getMiningDifficulty() public constant returns (uint) {\n        return _MAXIMUM_TARGET.div(miningTarget);\n    }\n\n    function getMiningTarget() public constant returns (uint) {\n        return miningTarget;\n    }\n\n    function getMiningReward() public constant returns (uint) {\n        return (50 * 10**uint(decimals) ).div( 2**rewardEra ) ;\n    }\n\n    function getMintDigest(uint256 nonce, bytes32 challenge_digest, bytes32 challenge_number) public view returns (bytes32 digesttest) {\n        bytes32 digest = keccak256(challenge_number,msg.sender,nonce);\n        return digest;\n    }\n\n    function checkMintSolution(uint256 nonce, bytes32 challenge_digest, bytes32 challenge_number, uint testTarget) public view returns (bool success) {\n        bytes32 digest = keccak256(challenge_number,msg.sender,nonce);\n        if(uint256(digest) > testTarget) revert();\n        return (digest == challenge_digest);\n    }\n}",
  "sourcePath": "/media/sami/Local Disk/Workspace/Solidity/Crowdfunding/contracts/Token.sol",
  "compiler": {
    "name": "solc",
    "version": "0.4.23+commit.124ca40d.Emscripten.clang"
  },
  "schemaVersion": "2.0.0",
  "updatedAt": "2018-05-07T12:46:45.457Z"
}